{
  "contractName": "Hello",
  "abi": [
    {
      "inputs": [],
      "payable": false,
      "stateMutability": "nonpayable",
      "type": "constructor"
    },
    {
      "anonymous": false,
      "inputs": [
        {
          "indexed": false,
          "internalType": "bytes32",
          "name": "newName",
          "type": "bytes32"
        }
      ],
      "name": "NameChanged",
      "type": "event"
    },
    {
      "constant": false,
      "inputs": [
        {
          "internalType": "bytes32",
          "name": "_newName",
          "type": "bytes32"
        }
      ],
      "name": "setName",
      "outputs": [],
      "payable": false,
      "stateMutability": "nonpayable",
      "type": "function"
    },
    {
      "constant": true,
      "inputs": [],
      "name": "getName",
      "outputs": [
        {
          "internalType": "bytes32",
          "name": "",
          "type": "bytes32"
        }
      ],
      "payable": false,
      "stateMutability": "view",
      "type": "function"
    }
  ],
  "bytecode": "0x608060405234801561001057600080fd5b507f6e6f626f6479000000000000000000000000000000000000000000000000000060008190555060fd806100466000396000f3fe6080604052348015600f57600080fd5b506004361060325760003560e01c806317d7de7c1460375780635ac801fe146053575b600080fd5b603d607e565b6040518082815260200191505060405180910390f35b607c60048036036020811015606757600080fd5b81019080803590602001909291905050506087565b005b60008054905090565b806000819055507fb0a4d76c825dc814a59c1a90f520a677f3f0843980294ef90afe1d7616a1cf70816040518082815260200191505060405180910390a15056fea265627a7a72315820afe1c6f9ba3ccd258f108cf15aaa0af2929de0350f107d4507bc984c0480f13d64736f6c63430005100032",
  "source": "pragma solidity ^0.5.0;\n\ncontract Hello {\n\n    bytes32 private name;\n\n    event NameChanged(bytes32 newName);\n\n    constructor() public {\n        name = \"nobody\";\n    }\n\n    function setName(bytes32 _newName) public {\n        name = _newName;\n        emit NameChanged(_newName);\n    }\n\n    function getName() public view returns (bytes32) {\n        return name;\n    }\n}",
  "sourcePath": "/home/INEAT-CONSEIL.FR/alexandrevan/ilab/ethereum-hands-on/truffle/contracts/Hello.sol",
  "compiler": {
    "name": "solc",
    "version": "0.5.16+commit.9c3226ce.Emscripten.clang"
  },
  "schemaVersion": "3.0.23",
  "updatedAt": "2020-03-13T10:11:16.917Z",
  "devdoc": {
    "methods": {}
  },
  "userdoc": {
    "methods": {}
  }
}