{
  "contractName": "Ownable",
  "abi": [
    {
      "inputs": [],
      "payable": false,
      "stateMutability": "nonpayable",
      "type": "constructor"
    },
    {
      "constant": false,
      "inputs": [],
      "name": "destroy",
      "outputs": [],
      "payable": false,
      "stateMutability": "nonpayable",
      "type": "function"
    }
  ],
  "bytecode": "0x608060405234801561001057600080fd5b50336000806101000a81548173ffffffffffffffffffffffffffffffffffffffff021916908373ffffffffffffffffffffffffffffffffffffffff16021790555061017c806100606000396000f3fe608060405234801561001057600080fd5b506004361061002b5760003560e01c806383197ef014610030575b600080fd5b61003861003a565b005b6000809054906101000a900473ffffffffffffffffffffffffffffffffffffffff1673ffffffffffffffffffffffffffffffffffffffff163373ffffffffffffffffffffffffffffffffffffffff16146100df576040517f08c379a000000000000000000000000000000000000000000000000000000000815260040180806020018281038252602e81526020018061011a602e913960400191505060405180910390fd5b6000809054906101000a900473ffffffffffffffffffffffffffffffffffffffff1673ffffffffffffffffffffffffffffffffffffffff16fffe4f6e6c792074686520636f6e7472616374206f776e65722063616e2063616c6c20746869732066756e6374696f6ea265627a7a723158208a25a871199f59f47db5e6ee17e14c3e6f8de792136d904e167de80cc6f1906a64736f6c63430005100032",
  "source": "pragma solidity ^0.5.16;\n\ncontract Ownable {\n    address payable owner;\n\n    // Contract constructor: set owner\n    constructor() public {\n        owner = msg.sender;\n    }\n\n    // Access control modifier\n    modifier onlyOwner {\n        require(msg.sender == owner, \"Only the contract owner can call this function\");\n        _;\n    }\n\n    // Contract destructor\n    function destroy() public onlyOwner {\n        selfdestruct(owner);\n    }\n\n}",
  "sourcePath": "/home/INEAT-CONSEIL.FR/alexandrevan/ilab/ethereum-hands-on/truffle/contracts/Ownable.sol",
  "compiler": {
    "name": "solc",
    "version": "0.5.16+commit.9c3226ce.Emscripten.clang"
  },
  "schemaVersion": "3.0.23",
  "updatedAt": "2020-03-13T10:02:06.219Z",
  "devdoc": {
    "methods": {}
  },
  "userdoc": {
    "methods": {}
  }
}