{
  "contractName": "ProposableHello",
  "abi": [
    {
      "inputs": [],
      "payable": false,
      "stateMutability": "nonpayable",
      "type": "constructor"
    },
    {
      "anonymous": false,
      "inputs": [
        {
          "indexed": false,
          "internalType": "string",
          "name": "newName",
          "type": "string"
        },
        {
          "indexed": false,
          "internalType": "address",
          "name": "sender",
          "type": "address"
        },
        {
          "indexed": false,
          "internalType": "uint256",
          "name": "price",
          "type": "uint256"
        }
      ],
      "name": "CreateProposal",
      "type": "event"
    },
    {
      "anonymous": false,
      "inputs": [
        {
          "indexed": false,
          "internalType": "string",
          "name": "newName",
          "type": "string"
        },
        {
          "indexed": false,
          "internalType": "address",
          "name": "userAddress",
          "type": "address"
        },
        {
          "indexed": false,
          "internalType": "uint256",
          "name": "value",
          "type": "uint256"
        }
      ],
      "name": "NameChanged",
      "type": "event"
    },
    {
      "anonymous": false,
      "inputs": [
        {
          "indexed": false,
          "internalType": "address",
          "name": "ownerAddress",
          "type": "address"
        },
        {
          "indexed": false,
          "internalType": "uint256",
          "name": "balance",
          "type": "uint256"
        }
      ],
      "name": "Withdraw",
      "type": "event"
    },
    {
      "payable": true,
      "stateMutability": "payable",
      "type": "fallback"
    },
    {
      "constant": false,
      "inputs": [],
      "name": "destroy",
      "outputs": [],
      "payable": false,
      "stateMutability": "nonpayable",
      "type": "function"
    },
    {
      "constant": true,
      "inputs": [
        {
          "internalType": "address",
          "name": "",
          "type": "address"
        }
      ],
      "name": "proposals",
      "outputs": [
        {
          "internalType": "address payable",
          "name": "sender",
          "type": "address"
        },
        {
          "internalType": "string",
          "name": "name",
          "type": "string"
        },
        {
          "internalType": "uint256",
          "name": "value",
          "type": "uint256"
        },
        {
          "internalType": "uint256",
          "name": "time",
          "type": "uint256"
        }
      ],
      "payable": false,
      "stateMutability": "view",
      "type": "function"
    },
    {
      "constant": true,
      "inputs": [
        {
          "internalType": "uint256",
          "name": "",
          "type": "uint256"
        }
      ],
      "name": "proposers",
      "outputs": [
        {
          "internalType": "address",
          "name": "",
          "type": "address"
        }
      ],
      "payable": false,
      "stateMutability": "view",
      "type": "function"
    },
    {
      "constant": false,
      "inputs": [
        {
          "internalType": "string",
          "name": "newName",
          "type": "string"
        }
      ],
      "name": "setName",
      "outputs": [],
      "payable": true,
      "stateMutability": "payable",
      "type": "function"
    },
    {
      "constant": true,
      "inputs": [],
      "name": "getName",
      "outputs": [
        {
          "internalType": "string",
          "name": "",
          "type": "string"
        }
      ],
      "payable": false,
      "stateMutability": "view",
      "type": "function"
    },
    {
      "constant": false,
      "inputs": [],
      "name": "withdraw",
      "outputs": [],
      "payable": false,
      "stateMutability": "nonpayable",
      "type": "function"
    },
    {
      "constant": false,
      "inputs": [
        {
          "internalType": "string",
          "name": "newName",
          "type": "string"
        }
      ],
      "name": "createProposal",
      "outputs": [],
      "payable": true,
      "stateMutability": "payable",
      "type": "function"
    },
    {
      "constant": false,
      "inputs": [],
      "name": "selectBestProposal",
      "outputs": [],
      "payable": false,
      "stateMutability": "nonpayable",
      "type": "function"
    }
  ],
  "bytecode": "0x60806040523480156200001157600080fd5b50336000806101000a81548173ffffffffffffffffffffffffffffffffffffffff021916908373ffffffffffffffffffffffffffffffffffffffff1602179055506040518060400160405280600681526020017f6e6f626f64790000000000000000000000000000000000000000000000000000815250600190805190602001906200009f929190620000a6565b5062000155565b828054600181600116156101000203166002900490600052602060002090601f016020900481019282601f10620000e957805160ff19168380011785556200011a565b828001600101855582156200011a579182015b8281111562000119578251825591602001919060010190620000fc565b5b5090506200012991906200012d565b5090565b6200015291905b808211156200014e57600081600090555060010162000134565b5090565b90565b61159980620001656000396000f3fe60806040526004361061007b5760003560e01c8063623e3d1a1161004e578063623e3d1a146102ed57806383197ef014610368578063a2b4b7221461037f578063c47f0027146103965761007b565b806317d7de7c146100805780633341b445146101105780633ccfd60b1461021b57806349c2a1a614610232575b600080fd5b34801561008c57600080fd5b50610095610451565b6040518080602001828103825283818151815260200191508051906020019080838360005b838110156100d55780820151818401526020810190506100ba565b50505050905090810190601f1680156101025780820380516001836020036101000a031916815260200191505b509250505060405180910390f35b34801561011c57600080fd5b5061015f6004803603602081101561013357600080fd5b81019080803573ffffffffffffffffffffffffffffffffffffffff1690602001909291905050506104f3565b604051808573ffffffffffffffffffffffffffffffffffffffff1673ffffffffffffffffffffffffffffffffffffffff16815260200180602001848152602001838152602001828103825285818151815260200191508051906020019080838360005b838110156101dd5780820151818401526020810190506101c2565b50505050905090810190601f16801561020a5780820380516001836020036101000a031916815260200191505b509550505050505060405180910390f35b34801561022757600080fd5b506102306105db565b005b6102eb6004803603602081101561024857600080fd5b810190808035906020019064010000000081111561026557600080fd5b82018360208201111561027757600080fd5b8035906020019184600183028401116401000000008311171561029957600080fd5b91908080601f016020809104026020016040519081016040528093929190818152602001838380828437600081840152601f19601f82011690508083019250505050505050919291929050505061073a565b005b3480156102f957600080fd5b506103266004803603602081101561031057600080fd5b81019080803590602001909291905050506109ea565b604051808273ffffffffffffffffffffffffffffffffffffffff1673ffffffffffffffffffffffffffffffffffffffff16815260200191505060405180910390f35b34801561037457600080fd5b5061037d610a26565b005b34801561038b57600080fd5b50610394610b05565b005b61044f600480360360208110156103ac57600080fd5b81019080803590602001906401000000008111156103c957600080fd5b8201836020820111156103db57600080fd5b803590602001918460018302840111640100000000831117156103fd57600080fd5b91908080601f016020809104026020016040519081016040528093929190818152602001838380828437600081840152601f19601f82011690508083019250505050505050919291929050505061121b565b005b606060018054600181600116156101000203166002900480601f0160208091040260200160405190810160405280929190818152602001828054600181600116156101000203166002900480156104e95780601f106104be576101008083540402835291602001916104e9565b820191906000526020600020905b8154815290600101906020018083116104cc57829003601f168201915b5050505050905090565b60036020528060005260406000206000915090508060000160009054906101000a900473ffffffffffffffffffffffffffffffffffffffff1690806001018054600181600116156101000203166002900480601f0160208091040260200160405190810160405280929190818152602001828054600181600116156101000203166002900480156105c55780601f1061059a576101008083540402835291602001916105c5565b820191906000526020600020905b8154815290600101906020018083116105a857829003601f168201915b5050505050908060020154908060030154905084565b6000809054906101000a900473ffffffffffffffffffffffffffffffffffffffff1673ffffffffffffffffffffffffffffffffffffffff163373ffffffffffffffffffffffffffffffffffffffff1614610680576040517f08c379a000000000000000000000000000000000000000000000000000000000815260040180806020018281038252602e815260200180611537602e913960400191505060405180910390fd5b60004790503373ffffffffffffffffffffffffffffffffffffffff166108fc829081150290604051600060405180830381858888f193505050501580156106cb573d6000803e3d6000fd5b507f884edad9ce6fa2440d8a54cc123490eb96d2768479d49ff9c7366125a94243643382604051808373ffffffffffffffffffffffffffffffffffffffff1673ffffffffffffffffffffffffffffffffffffffff1681526020018281526020019250505060405180910390a150565b671bc16d674ec800003410156107b8576040517f08c379a00000000000000000000000000000000000000000000000000000000081526004018080602001828103825260118152602001807f506179203220455448206f72206d6f726500000000000000000000000000000081525060200191505060405180910390fd5b60023390806001815401808255809150509060018203906000526020600020016000909192909190916101000a81548173ffffffffffffffffffffffffffffffffffffffff021916908373ffffffffffffffffffffffffffffffffffffffff1602179055505060405180608001604052803373ffffffffffffffffffffffffffffffffffffffff16815260200182815260200134815260200142815250600360003373ffffffffffffffffffffffffffffffffffffffff1673ffffffffffffffffffffffffffffffffffffffff16815260200190815260200160002060008201518160000160006101000a81548173ffffffffffffffffffffffffffffffffffffffff021916908373ffffffffffffffffffffffffffffffffffffffff16021790555060208201518160010190805190602001906108f792919061138b565b5060408201518160020155606082015181600301559050507f80855bcd1d1d5b2e9983e1de2fb80ec717d678fb868392a8b549ca0c3f5f25a781333460405180806020018473ffffffffffffffffffffffffffffffffffffffff1673ffffffffffffffffffffffffffffffffffffffff168152602001838152602001828103825285818151815260200191508051906020019080838360005b838110156109ab578082015181840152602081019050610990565b50505050905090810190601f1680156109d85780820380516001836020036101000a031916815260200191505b5094505050505060405180910390a150565b600281815481106109f757fe5b906000526020600020016000915054906101000a900473ffffffffffffffffffffffffffffffffffffffff1681565b6000809054906101000a900473ffffffffffffffffffffffffffffffffffffffff1673ffffffffffffffffffffffffffffffffffffffff163373ffffffffffffffffffffffffffffffffffffffff1614610acb576040517f08c379a000000000000000000000000000000000000000000000000000000000815260040180806020018281038252602e815260200180611537602e913960400191505060405180910390fd5b6000809054906101000a900473ffffffffffffffffffffffffffffffffffffffff1673ffffffffffffffffffffffffffffffffffffffff16ff5b6000809054906101000a900473ffffffffffffffffffffffffffffffffffffffff1673ffffffffffffffffffffffffffffffffffffffff163373ffffffffffffffffffffffffffffffffffffffff1614610baa576040517f08c379a000000000000000000000000000000000000000000000000000000000815260040180806020018281038252602e815260200180611537602e913960400191505060405180910390fd5b610bb261140b565b600360006002600081548110610bc457fe5b9060005260206000200160009054906101000a900473ffffffffffffffffffffffffffffffffffffffff1673ffffffffffffffffffffffffffffffffffffffff1673ffffffffffffffffffffffffffffffffffffffff1681526020019081526020016000206040518060800160405290816000820160009054906101000a900473ffffffffffffffffffffffffffffffffffffffff1673ffffffffffffffffffffffffffffffffffffffff1673ffffffffffffffffffffffffffffffffffffffff168152602001600182018054600181600116156101000203166002900480601f016020809104026020016040519081016040528092919081815260200182805460018160011615610100020316600290048015610d235780601f10610cf857610100808354040283529160200191610d23565b820191906000526020600020905b815481529060010190602001808311610d0657829003601f168201915b505050505081526020016002820154815260200160038201548152505090506002600081548110610d5057fe5b9060005260206000200160006101000a81549073ffffffffffffffffffffffffffffffffffffffff02191690556000600190505b60028054905081101561111857610d9961140b565b6003600060028481548110610daa57fe5b9060005260206000200160009054906101000a900473ffffffffffffffffffffffffffffffffffffffff1673ffffffffffffffffffffffffffffffffffffffff1673ffffffffffffffffffffffffffffffffffffffff1681526020019081526020016000206040518060800160405290816000820160009054906101000a900473ffffffffffffffffffffffffffffffffffffffff1673ffffffffffffffffffffffffffffffffffffffff1673ffffffffffffffffffffffffffffffffffffffff168152602001600182018054600181600116156101000203166002900480601f016020809104026020016040519081016040528092919081815260200182805460018160011615610100020316600290048015610f095780601f10610ede57610100808354040283529160200191610f09565b820191906000526020600020905b815481529060010190602001808311610eec57829003601f168201915b50505050508152602001600282015481526020016003820154815250509050826040015181604001511180610f58575082604001518160400151148015610f57575082606001518160600151105b5b15610fc0576000836000015190506000846040015190508294508173ffffffffffffffffffffffffffffffffffffffff166108fc829081150290604051600060405180830381858888f19350505050158015610fb8573d6000803e3d6000fd5b505050611010565b806000015173ffffffffffffffffffffffffffffffffffffffff166108fc82604001519081150290604051600060405180830381858888f1935050505015801561100e573d6000803e3d6000fd5b505b600360006002848154811061102157fe5b9060005260206000200160009054906101000a900473ffffffffffffffffffffffffffffffffffffffff1673ffffffffffffffffffffffffffffffffffffffff1673ffffffffffffffffffffffffffffffffffffffff168152602001908152602001600020600080820160006101000a81549073ffffffffffffffffffffffffffffffffffffffff02191690556001820160006110be9190611449565b600282016000905560038201600090555050600282815481106110dd57fe5b9060005260206000200160006101000a81549073ffffffffffffffffffffffffffffffffffffffff0219169055508080600101915050610d84565b50806020015160019080519060200190611133929190611491565b507fc48488fd27c79fd358a3f6f9be6a1a4b906113b71ab5344e1bfaf56c62da9d8681602001518260000151836040015160405180806020018473ffffffffffffffffffffffffffffffffffffffff1673ffffffffffffffffffffffffffffffffffffffff168152602001838152602001828103825285818151815260200191508051906020019080838360005b838110156111dc5780820151818401526020810190506111c1565b50505050905090810190601f1680156112095780820380516001836020036101000a031916815260200191505b5094505050505060405180910390a150565b671bc16d674ec80000341015611299576040517f08c379a00000000000000000000000000000000000000000000000000000000081526004018080602001828103825260118152602001807f506179203220455448206f72206d6f726500000000000000000000000000000081525060200191505060405180910390fd5b80600190805190602001906112af929190611491565b507fc48488fd27c79fd358a3f6f9be6a1a4b906113b71ab5344e1bfaf56c62da9d8681333460405180806020018473ffffffffffffffffffffffffffffffffffffffff1673ffffffffffffffffffffffffffffffffffffffff168152602001838152602001828103825285818151815260200191508051906020019080838360005b8381101561134c578082015181840152602081019050611331565b50505050905090810190601f1680156113795780820380516001836020036101000a031916815260200191505b5094505050505060405180910390a150565b828054600181600116156101000203166002900490600052602060002090601f016020900481019282601f106113cc57805160ff19168380011785556113fa565b828001600101855582156113fa579182015b828111156113f95782518255916020019190600101906113de565b5b5090506114079190611511565b5090565b6040518060800160405280600073ffffffffffffffffffffffffffffffffffffffff1681526020016060815260200160008152602001600081525090565b50805460018160011615610100020316600290046000825580601f1061146f575061148e565b601f01602090049060005260206000209081019061148d9190611511565b5b50565b828054600181600116156101000203166002900490600052602060002090601f016020900481019282601f106114d257805160ff1916838001178555611500565b82800160010185558215611500579182015b828111156114ff5782518255916020019190600101906114e4565b5b50905061150d9190611511565b5090565b61153391905b8082111561152f576000816000905550600101611517565b5090565b9056fe4f6e6c792074686520636f6e7472616374206f776e65722063616e2063616c6c20746869732066756e6374696f6ea265627a7a7231582038eba0b0da298d1ac7e269cc229aa903f3d23f858548df6988950c1f101a636564736f6c63430005100032",
  "source": "pragma solidity ^0.5.16;\n\nimport \"./Ownable.sol\";\n\ncontract ProposableHello is Ownable {\n\n    string private name;\n\n    event NameChanged(string newName, address userAddress, uint value);\n    event Withdraw(address ownerAddress, uint balance);\n    event CreateProposal(string newName, address sender, uint price);\n\n    struct Proposal {\n        address payable sender;\n        string name;\n        uint value;\n        uint time;\n    }\n\n    address [] public proposers;\n\n    mapping(address => Proposal) public proposals;\n\n    constructor() public {\n        name = \"nobody\";\n    }\n\n    function setName(string memory newName) public payable {\n        require(msg.value >= 2 ether, \"Pay 2 ETH or more\");\n        name = newName;\n        emit NameChanged(newName, msg.sender, msg.value);\n    }\n\n    function getName() public view returns (string memory) {\n        return name;\n    }\n\n    function withdraw() public onlyOwner {\n        uint balance = address(this).balance;\n        msg.sender.transfer(balance);\n        emit Withdraw(msg.sender, balance);\n    }\n\n    function() external payable {\n        revert();\n    }\n\n    function createProposal(string memory newName) public payable {\n        require(msg.value >= 2 ether, \"Pay 2 ETH or more\");\n        proposers.push(msg.sender);\n        proposals[msg.sender] = Proposal(msg.sender, newName, msg.value, now);\n        emit CreateProposal(newName, msg.sender, msg.value);\n    }\n\n    function selectBestProposal() public onlyOwner {\n\n        Proposal memory bestProposal = proposals[proposers[0]];\n        delete proposers[0];\n\n        // search best proposal\n        for (uint i=1; i<proposers.length; i++) {\n            Proposal memory currentProposal = proposals[proposers[i]];\n\n            if(( currentProposal.value > bestProposal.value) || (currentProposal.value == bestProposal.value && currentProposal.time < bestProposal.time)) {\n\n                address payable sender = bestProposal.sender;\n                uint value = bestProposal.value;\n\n                bestProposal = currentProposal;\n\n                // refund sender of previous best\n                sender.transfer(value);\n\n            }\n            else {\n                // refund sender\n                currentProposal.sender.transfer(currentProposal.value);\n            }\n\n            delete proposals[proposers[i]];\n            delete proposers[i];\n        }\n\n        // change value\n        name = bestProposal.name;\n        emit NameChanged(bestProposal.name, bestProposal.sender, bestProposal.value);\n\n    }\n\n}",
  "sourcePath": "/home/INEAT-CONSEIL.FR/alexandrevan/ilab/ethereum-hands-on/truffle/contracts/ProposableHello.sol",
  "compiler": {
    "name": "solc",
    "version": "0.5.16+commit.9c3226ce.Emscripten.clang"
  },
  "schemaVersion": "3.0.23",
  "updatedAt": "2020-03-13T10:02:06.221Z",
  "devdoc": {
    "methods": {}
  },
  "userdoc": {
    "methods": {}
  }
}