{
  "contractName": "ProposableHello",
  "abi": [
    {
      "inputs": [],
      "payable": false,
      "stateMutability": "nonpayable",
      "type": "constructor"
    },
    {
      "anonymous": false,
      "inputs": [
        {
          "indexed": false,
          "internalType": "string",
          "name": "newName",
          "type": "string"
        },
        {
          "indexed": false,
          "internalType": "address",
          "name": "sender",
          "type": "address"
        },
        {
          "indexed": false,
          "internalType": "uint256",
          "name": "price",
          "type": "uint256"
        },
        {
          "indexed": false,
          "internalType": "uint256",
          "name": "time",
          "type": "uint256"
        }
      ],
      "name": "CreateProposal",
      "type": "event"
    },
    {
      "anonymous": false,
      "inputs": [
        {
          "indexed": false,
          "internalType": "string",
          "name": "newName",
          "type": "string"
        },
        {
          "indexed": false,
          "internalType": "address",
          "name": "userAddress",
          "type": "address"
        },
        {
          "indexed": false,
          "internalType": "uint256",
          "name": "value",
          "type": "uint256"
        }
      ],
      "name": "NameChanged",
      "type": "event"
    },
    {
      "anonymous": false,
      "inputs": [
        {
          "indexed": false,
          "internalType": "address",
          "name": "ownerAddress",
          "type": "address"
        },
        {
          "indexed": false,
          "internalType": "uint256",
          "name": "balance",
          "type": "uint256"
        }
      ],
      "name": "Withdraw",
      "type": "event"
    },
    {
      "payable": true,
      "stateMutability": "payable",
      "type": "fallback"
    },
    {
      "constant": false,
      "inputs": [],
      "name": "destroy",
      "outputs": [],
      "payable": false,
      "stateMutability": "nonpayable",
      "type": "function"
    },
    {
      "constant": true,
      "inputs": [
        {
          "internalType": "address",
          "name": "",
          "type": "address"
        }
      ],
      "name": "proposals",
      "outputs": [
        {
          "internalType": "address payable",
          "name": "sender",
          "type": "address"
        },
        {
          "internalType": "string",
          "name": "name",
          "type": "string"
        },
        {
          "internalType": "uint256",
          "name": "value",
          "type": "uint256"
        },
        {
          "internalType": "uint256",
          "name": "time",
          "type": "uint256"
        }
      ],
      "payable": false,
      "stateMutability": "view",
      "type": "function"
    },
    {
      "constant": true,
      "inputs": [
        {
          "internalType": "uint256",
          "name": "",
          "type": "uint256"
        }
      ],
      "name": "proposers",
      "outputs": [
        {
          "internalType": "address",
          "name": "",
          "type": "address"
        }
      ],
      "payable": false,
      "stateMutability": "view",
      "type": "function"
    },
    {
      "constant": true,
      "inputs": [],
      "name": "getName",
      "outputs": [
        {
          "internalType": "string",
          "name": "",
          "type": "string"
        }
      ],
      "payable": false,
      "stateMutability": "view",
      "type": "function"
    },
    {
      "constant": false,
      "inputs": [],
      "name": "withdraw",
      "outputs": [],
      "payable": false,
      "stateMutability": "nonpayable",
      "type": "function"
    },
    {
      "constant": false,
      "inputs": [
        {
          "internalType": "string",
          "name": "_newName",
          "type": "string"
        }
      ],
      "name": "createProposal",
      "outputs": [],
      "payable": true,
      "stateMutability": "payable",
      "type": "function"
    },
    {
      "constant": false,
      "inputs": [],
      "name": "selectBestProposal",
      "outputs": [],
      "payable": false,
      "stateMutability": "nonpayable",
      "type": "function"
    },
    {
      "constant": true,
      "inputs": [],
      "name": "getProposals",
      "outputs": [
        {
          "components": [
            {
              "internalType": "address payable",
              "name": "sender",
              "type": "address"
            },
            {
              "internalType": "string",
              "name": "name",
              "type": "string"
            },
            {
              "internalType": "uint256",
              "name": "value",
              "type": "uint256"
            },
            {
              "internalType": "uint256",
              "name": "time",
              "type": "uint256"
            }
          ],
          "internalType": "struct ProposableHello.Proposal[]",
          "name": "",
          "type": "tuple[]"
        }
      ],
      "payable": false,
      "stateMutability": "view",
      "type": "function"
    }
  ],
  "bytecode": "0x60806040523480156200001157600080fd5b50336000806101000a81548173ffffffffffffffffffffffffffffffffffffffff021916908373ffffffffffffffffffffffffffffffffffffffff1602179055506040518060400160405280600681526020017f6e6f626f64790000000000000000000000000000000000000000000000000000815250600190805190602001906200009f929190620000a6565b5062000155565b828054600181600116156101000203166002900490600052602060002090601f016020900481019282601f10620000e957805160ff19168380011785556200011a565b828001600101855582156200011a579182015b8281111562000119578251825591602001919060010190620000fc565b5b5090506200012991906200012d565b5090565b6200015291905b808211156200014e57600081600090555060010162000134565b5090565b90565b61193380620001656000396000f3fe60806040526004361061007b5760003560e01c8063623e3d1a1161004e578063623e3d1a1461011e57806362564c481461015b57806383197ef014610186578063a2b4b7221461019d5761007b565b806317d7de7c146100805780633341b445146100ab5780633ccfd60b146100eb57806349c2a1a614610102575b600080fd5b34801561008c57600080fd5b506100956101b4565b6040516100a29190611635565b60405180910390f35b3480156100b757600080fd5b506100d260048036036100cd9190810190611259565b610256565b6040516100e2949392919061159e565b60405180910390f35b3480156100f757600080fd5b5061010061033e565b005b61011c60048036036101179190810190611282565b610455565b005b34801561012a57600080fd5b50610145600480360361014091908101906112c3565b610637565b6040516101529190611583565b60405180910390f35b34801561016757600080fd5b50610170610673565b60405161017d9190611613565b60405180910390f35b34801561019257600080fd5b5061019b61088a565b005b3480156101a957600080fd5b506101b2610953565b005b606060018054600181600116156101000203166002900480601f01602080910402602001604051908101604052809291908181526020018280546001816001161561010002031660029004801561024c5780601f106102215761010080835404028352916020019161024c565b820191906000526020600020905b81548152906001019060200180831161022f57829003601f168201915b5050505050905090565b60036020528060005260406000206000915090508060000160009054906101000a900473ffffffffffffffffffffffffffffffffffffffff1690806001018054600181600116156101000203166002900480601f0160208091040260200160405190810160405280929190818152602001828054600181600116156101000203166002900480156103285780601f106102fd57610100808354040283529160200191610328565b820191906000526020600020905b81548152906001019060200180831161030b57829003601f168201915b5050505050908060020154908060030154905084565b6000809054906101000a900473ffffffffffffffffffffffffffffffffffffffff1673ffffffffffffffffffffffffffffffffffffffff163373ffffffffffffffffffffffffffffffffffffffff16146103cd576040517f08c379a00000000000000000000000000000000000000000000000000000000081526004016103c4906116e1565b60405180910390fd5b60004790503373ffffffffffffffffffffffffffffffffffffffff166108fc829081150290604051600060405180830381858888f19350505050158015610418573d6000803e3d6000fd5b507f884edad9ce6fa2440d8a54cc123490eb96d2768479d49ff9c7366125a9424364338260405161044a9291906115ea565b60405180910390a150565b671bc16d674ec800003410156104a0576040517f08c379a000000000000000000000000000000000000000000000000000000000815260040161049790611701565b60405180910390fd5b60023390806001815401808255809150509060018203906000526020600020016000909192909190916101000a81548173ffffffffffffffffffffffffffffffffffffffff021916908373ffffffffffffffffffffffffffffffffffffffff1602179055505060405180608001604052803373ffffffffffffffffffffffffffffffffffffffff16815260200182815260200134815260200142815250600360003373ffffffffffffffffffffffffffffffffffffffff1673ffffffffffffffffffffffffffffffffffffffff16815260200190815260200160002060008201518160000160006101000a81548173ffffffffffffffffffffffffffffffffffffffff021916908373ffffffffffffffffffffffffffffffffffffffff16021790555060208201518160010190805190602001906105df929190610fc6565b5060408201518160020155606082015181600301559050507ff44930e5ab28f9b41056346a8b94697879e3cd98ad88e6f2a7eeded09598e5ab8133344260405161062c9493929190611657565b60405180910390a150565b6002818154811061064457fe5b906000526020600020016000915054906101000a900473ffffffffffffffffffffffffffffffffffffffff1681565b6060806002805490506040519080825280602002602001820160405280156106b557816020015b6106a2611046565b81526020019060019003908161069a5790505b50905060008090505b60028054905081101561088257600060036000600284815481106106de57fe5b9060005260206000200160009054906101000a900473ffffffffffffffffffffffffffffffffffffffff1673ffffffffffffffffffffffffffffffffffffffff1673ffffffffffffffffffffffffffffffffffffffff1681526020019081526020016000209050806040518060800160405290816000820160009054906101000a900473ffffffffffffffffffffffffffffffffffffffff1673ffffffffffffffffffffffffffffffffffffffff1673ffffffffffffffffffffffffffffffffffffffff168152602001600182018054600181600116156101000203166002900480601f0160208091040260200160405190810160405280929190818152602001828054600181600116156101000203166002900480156108405780601f1061081557610100808354040283529160200191610840565b820191906000526020600020905b81548152906001019060200180831161082357829003601f168201915b505050505081526020016002820154815260200160038201548152505083838151811061086957fe5b60200260200101819052505080806001019150506106be565b508091505090565b6000809054906101000a900473ffffffffffffffffffffffffffffffffffffffff1673ffffffffffffffffffffffffffffffffffffffff163373ffffffffffffffffffffffffffffffffffffffff1614610919576040517f08c379a0000000000000000000000000000000000000000000000000000000008152600401610910906116e1565b60405180910390fd5b6000809054906101000a900473ffffffffffffffffffffffffffffffffffffffff1673ffffffffffffffffffffffffffffffffffffffff16ff5b6000809054906101000a900473ffffffffffffffffffffffffffffffffffffffff1673ffffffffffffffffffffffffffffffffffffffff163373ffffffffffffffffffffffffffffffffffffffff16146109e2576040517f08c379a00000000000000000000000000000000000000000000000000000000081526004016109d9906116e1565b60405180910390fd5b6109ea611084565b6003600060026000815481106109fc57fe5b9060005260206000200160009054906101000a900473ffffffffffffffffffffffffffffffffffffffff1673ffffffffffffffffffffffffffffffffffffffff1673ffffffffffffffffffffffffffffffffffffffff1681526020019081526020016000206040518060800160405290816000820160009054906101000a900473ffffffffffffffffffffffffffffffffffffffff1673ffffffffffffffffffffffffffffffffffffffff1673ffffffffffffffffffffffffffffffffffffffff168152602001600182018054600181600116156101000203166002900480601f016020809104026020016040519081016040528092919081815260200182805460018160011615610100020316600290048015610b5b5780601f10610b3057610100808354040283529160200191610b5b565b820191906000526020600020905b815481529060010190602001808311610b3e57829003601f168201915b505050505081526020016002820154815260200160038201548152505090506002600081548110610b8857fe5b9060005260206000200160006101000a81549073ffffffffffffffffffffffffffffffffffffffff02191690556000600190505b600280549050811015610f6057610bd1611084565b6003600060028481548110610be257fe5b9060005260206000200160009054906101000a900473ffffffffffffffffffffffffffffffffffffffff1673ffffffffffffffffffffffffffffffffffffffff1673ffffffffffffffffffffffffffffffffffffffff1681526020019081526020016000206040518060800160405290816000820160009054906101000a900473ffffffffffffffffffffffffffffffffffffffff1673ffffffffffffffffffffffffffffffffffffffff1673ffffffffffffffffffffffffffffffffffffffff168152602001600182018054600181600116156101000203166002900480601f016020809104026020016040519081016040528092919081815260200182805460018160011615610100020316600290048015610d415780601f10610d1657610100808354040283529160200191610d41565b820191906000526020600020905b815481529060010190602001808311610d2457829003601f168201915b50505050508152602001600282015481526020016003820154815250509050826040015181604001511180610d90575082604001518160400151148015610d8f575082606001518160600151105b5b15610df8576000836000015190506000846040015190508294508173ffffffffffffffffffffffffffffffffffffffff166108fc829081150290604051600060405180830381858888f19350505050158015610df0573d6000803e3d6000fd5b505050610e48565b806000015173ffffffffffffffffffffffffffffffffffffffff166108fc82604001519081150290604051600060405180830381858888f19350505050158015610e46573d6000803e3d6000fd5b505b6003600060028481548110610e5957fe5b9060005260206000200160009054906101000a900473ffffffffffffffffffffffffffffffffffffffff1673ffffffffffffffffffffffffffffffffffffffff1673ffffffffffffffffffffffffffffffffffffffff168152602001908152602001600020600080820160006101000a81549073ffffffffffffffffffffffffffffffffffffffff0219169055600182016000610ef691906110c2565b60028201600090556003820160009055505060028281548110610f1557fe5b9060005260206000200160006101000a81549073ffffffffffffffffffffffffffffffffffffffff02191690556000600281610f51919061110a565b50508080600101915050610bbc565b50806020015160019080519060200190610f7b929190611136565b507fc48488fd27c79fd358a3f6f9be6a1a4b906113b71ab5344e1bfaf56c62da9d86816020015182600001518360400151604051610fbb939291906116a3565b60405180910390a150565b828054600181600116156101000203166002900490600052602060002090601f016020900481019282601f1061100757805160ff1916838001178555611035565b82800160010185558215611035579182015b82811115611034578251825591602001919060010190611019565b5b50905061104291906111b6565b5090565b6040518060800160405280600073ffffffffffffffffffffffffffffffffffffffff1681526020016060815260200160008152602001600081525090565b6040518060800160405280600073ffffffffffffffffffffffffffffffffffffffff1681526020016060815260200160008152602001600081525090565b50805460018160011615610100020316600290046000825580601f106110e85750611107565b601f01602090049060005260206000209081019061110691906111b6565b5b50565b8154818355818111156111315781836000526020600020918201910161113091906111b6565b5b505050565b828054600181600116156101000203166002900490600052602060002090601f016020900481019282601f1061117757805160ff19168380011785556111a5565b828001600101855582156111a5579182015b828111156111a4578251825591602001919060010190611189565b5b5090506111b291906111b6565b5090565b6111d891905b808211156111d45760008160009055506001016111bc565b5090565b90565b6000813590506111ea816118c2565b92915050565b600082601f83011261120157600080fd5b813561121461120f8261174e565b611721565b9150808252602083016020830185838301111561123057600080fd5b61123b83828461186f565b50505092915050565b600081359050611253816118d9565b92915050565b60006020828403121561126b57600080fd5b6000611279848285016111db565b91505092915050565b60006020828403121561129457600080fd5b600082013567ffffffffffffffff8111156112ae57600080fd5b6112ba848285016111f0565b91505092915050565b6000602082840312156112d557600080fd5b60006112e384828501611244565b91505092915050565b60006112f88383611502565b905092915050565b61130981611839565b82525050565b611318816117fd565b82525050565b611327816117fd565b82525050565b611336816117eb565b82525050565b60006113478261178a565b61135181856117b8565b9350836020820285016113638561177a565b8060005b8581101561139f578484038952815161138085826112ec565b945061138b836117ab565b925060208a01995050600181019050611367565b50829750879550505050505092915050565b60006113bc826117a0565b6113c681856117da565b93506113d681856020860161187e565b6113df816118b1565b840191505092915050565b60006113f582611795565b6113ff81856117c9565b935061140f81856020860161187e565b611418816118b1565b840191505092915050565b600061142e82611795565b61143881856117da565b935061144881856020860161187e565b611451816118b1565b840191505092915050565b6000611469602e836117da565b91507f4f6e6c792074686520636f6e7472616374206f776e65722063616e2063616c6c60008301527f20746869732066756e6374696f6e0000000000000000000000000000000000006020830152604082019050919050565b60006114cf6011836117da565b91507f506179203220455448206f72206d6f72650000000000000000000000000000006000830152602082019050919050565b600060808301600083015161151a600086018261130f565b506020830151848203602086015261153282826113ea565b91505060408301516115476040860182611565565b50606083015161155a6060860182611565565b508091505092915050565b61156e8161182f565b82525050565b61157d8161182f565b82525050565b6000602082019050611598600083018461132d565b92915050565b60006080820190506115b3600083018761131e565b81810360208301526115c58186611423565b90506115d46040830185611574565b6115e16060830184611574565b95945050505050565b60006040820190506115ff6000830185611300565b61160c6020830184611574565b9392505050565b6000602082019050818103600083015261162d818461133c565b905092915050565b6000602082019050818103600083015261164f81846113b1565b905092915050565b6000608082019050818103600083015261167181876113b1565b90506116806020830186611300565b61168d6040830185611574565b61169a6060830184611574565b95945050505050565b600060608201905081810360008301526116bd8186611423565b90506116cc6020830185611300565b6116d96040830184611574565b949350505050565b600060208201905081810360008301526116fa8161145c565b9050919050565b6000602082019050818103600083015261171a816114c2565b9050919050565b6000604051905081810181811067ffffffffffffffff8211171561174457600080fd5b8060405250919050565b600067ffffffffffffffff82111561176557600080fd5b601f19601f8301169050602081019050919050565b6000819050602082019050919050565b600081519050919050565b600081519050919050565b600081519050919050565b6000602082019050919050565b600082825260208201905092915050565b600082825260208201905092915050565b600082825260208201905092915050565b60006117f68261180f565b9050919050565b60006118088261180f565b9050919050565b600073ffffffffffffffffffffffffffffffffffffffff82169050919050565b6000819050919050565b60006118448261184b565b9050919050565b60006118568261185d565b9050919050565b60006118688261180f565b9050919050565b82818337600083830152505050565b60005b8381101561189c578082015181840152602081019050611881565b838111156118ab576000848401525b50505050565b6000601f19601f8301169050919050565b6118cb816117eb565b81146118d657600080fd5b50565b6118e28161182f565b81146118ed57600080fd5b5056fea365627a7a723158201d6a2b100ed204c2631b60f8c2d7cc30b641f88be9762b5f852ffefce67f86036c6578706572696d656e74616cf564736f6c63430005100040",
  "source": "pragma solidity ^0.5.16;\npragma experimental ABIEncoderV2;\n\nimport \"./Ownable.sol\";\n\ncontract ProposableHello is Ownable {\n\n    string private name;\n\n\n    event NameChanged(string newName, address userAddress, uint value);\n    event Withdraw(address ownerAddress, uint balance);\n    event CreateProposal(string newName, address sender, uint price, uint time);\n\n    struct Proposal {\n        address payable sender;\n        string name;\n        uint value;\n        uint time;\n    }\n\n    address [] public proposers;\n\n    mapping(address => Proposal) public proposals;\n\n    constructor() public {\n        name = \"nobody\";\n    }\n\n    function setName(string memory _newName) internal {\n        name = _newName;\n        emit NameChanged(_newName, msg.sender, msg.value);\n    }\n\n    function getName() public view returns (string memory) {\n        return name;\n    }\n\n    function withdraw() public onlyOwner {\n        uint balance = address(this).balance;\n        msg.sender.transfer(balance);\n        emit Withdraw(msg.sender, balance);\n    }\n\n    function() external payable {\n        revert();\n    }\n\n    function createProposal(string memory _newName) public payable {\n        require(msg.value >= 2 ether, \"Pay 2 ETH or more\");\n        proposers.push(msg.sender);\n        proposals[msg.sender] = Proposal(msg.sender, _newName, msg.value, now);\n        emit CreateProposal(_newName, msg.sender, msg.value, now);\n    }\n\n    function selectBestProposal() public onlyOwner {\n\n        Proposal memory bestProposal = proposals[proposers[0]];\n        delete proposers[0];\n\n        // search best proposal\n        for (uint i=1; i<proposers.length; i++) {\n            Proposal memory currentProposal = proposals[proposers[i]];\n\n            if(( currentProposal.value > bestProposal.value) || (currentProposal.value == bestProposal.value && currentProposal.time < bestProposal.time)) {\n\n                address payable sender = bestProposal.sender;\n                uint value = bestProposal.value;\n\n                bestProposal = currentProposal;\n\n                // refund sender of previous best\n                sender.transfer(value);\n\n            }\n            else {\n                // refund sender\n                currentProposal.sender.transfer(currentProposal.value);\n            }\n\n            delete proposals[proposers[i]];\n            delete proposers[i];\n            proposers.length=0;\n        }\n\n        // change value\n        name = bestProposal.name;\n        emit NameChanged(bestProposal.name, bestProposal.sender, bestProposal.value);\n\n    }\n\n    function getProposals() external view returns(Proposal[] memory) {\n        Proposal[] memory result = new Proposal[](proposers.length);\n\n        for (uint i=0; i<proposers.length; i++) {\n            Proposal storage p = proposals[proposers[i]];\n            result[i] = p ;\n        }\n\n        return result;\n    }\n\n}",
  "sourcePath": "/home/INEAT-CONSEIL.FR/alexandrevan/ilab/ethereum-hands-on/truffle/contracts/ProposableHello.sol",
  "compiler": {
    "name": "solc",
    "version": "0.5.16+commit.9c3226ce.Emscripten.clang"
  },
  "schemaVersion": "3.0.23",
  "updatedAt": "2020-03-13T15:07:02.720Z",
  "networkType": "ethereum",
  "devdoc": {
    "methods": {}
  },
  "userdoc": {
    "methods": {}
  }
}